{
  "_format": "hh-sol-artifact-1",
  "contractName": "Payroll",
  "sourceName": "contracts/payroll.sol",
  "abi": [
    {
      "inputs": [],
      "stateMutability": "nonpayable",
      "type": "constructor"
    },
    {
      "anonymous": false,
      "inputs": [
        {
          "indexed": true,
          "internalType": "address",
          "name": "employeeWallet",
          "type": "address"
        },
        {
          "indexed": false,
          "internalType": "uint256",
          "name": "amount",
          "type": "uint256"
        }
      ],
      "name": "ClaimApproved",
      "type": "event"
    },
    {
      "anonymous": false,
      "inputs": [
        {
          "indexed": true,
          "internalType": "address",
          "name": "employee",
          "type": "address"
        },
        {
          "indexed": false,
          "internalType": "uint256",
          "name": "amount",
          "type": "uint256"
        }
      ],
      "name": "ClaimSubmitted",
      "type": "event"
    },
    {
      "anonymous": false,
      "inputs": [
        {
          "indexed": true,
          "internalType": "address",
          "name": "sender",
          "type": "address"
        },
        {
          "indexed": false,
          "internalType": "uint256",
          "name": "amount",
          "type": "uint256"
        }
      ],
      "name": "DepositReceived",
      "type": "event"
    },
    {
      "anonymous": false,
      "inputs": [
        {
          "indexed": true,
          "internalType": "address",
          "name": "employee",
          "type": "address"
        },
        {
          "indexed": false,
          "internalType": "string",
          "name": "name",
          "type": "string"
        },
        {
          "indexed": false,
          "internalType": "uint256",
          "name": "hourlyPay",
          "type": "uint256"
        },
        {
          "indexed": false,
          "internalType": "uint256",
          "name": "hoursPerDay",
          "type": "uint256"
        }
      ],
      "name": "EmployeeAdded",
      "type": "event"
    },
    {
      "inputs": [
        {
          "internalType": "address payable",
          "name": "_employee",
          "type": "address"
        },
        {
          "internalType": "string",
          "name": "_name",
          "type": "string"
        },
        {
          "internalType": "uint256",
          "name": "_hourlyPayInEther",
          "type": "uint256"
        },
        {
          "internalType": "uint256",
          "name": "_hoursPerDay",
          "type": "uint256"
        }
      ],
      "name": "addEmployee",
      "outputs": [],
      "stateMutability": "nonpayable",
      "type": "function"
    },
    {
      "inputs": [
        {
          "internalType": "address",
          "name": "_employee",
          "type": "address"
        }
      ],
      "name": "approveClaim",
      "outputs": [],
      "stateMutability": "nonpayable",
      "type": "function"
    },
    {
      "inputs": [],
      "name": "claimSalary",
      "outputs": [],
      "stateMutability": "nonpayable",
      "type": "function"
    },
    {
      "inputs": [],
      "name": "deposit",
      "outputs": [],
      "stateMutability": "payable",
      "type": "function"
    },
    {
      "inputs": [],
      "name": "employeeList",
      "outputs": [
        {
          "internalType": "string[]",
          "name": "",
          "type": "string[]"
        }
      ],
      "stateMutability": "view",
      "type": "function"
    },
    {
      "inputs": [
        {
          "internalType": "address",
          "name": "_addr",
          "type": "address"
        }
      ],
      "name": "getEmployee",
      "outputs": [
        {
          "internalType": "address",
          "name": "wallet",
          "type": "address"
        },
        {
          "internalType": "string",
          "name": "name",
          "type": "string"
        },
        {
          "internalType": "uint256",
          "name": "hourlyPay",
          "type": "uint256"
        },
        {
          "internalType": "uint256",
          "name": "hoursPerDay",
          "type": "uint256"
        },
        {
          "internalType": "bool",
          "name": "isActive",
          "type": "bool"
        }
      ],
      "stateMutability": "view",
      "type": "function"
    },
    {
      "inputs": [],
      "name": "owner",
      "outputs": [
        {
          "internalType": "address",
          "name": "",
          "type": "address"
        }
      ],
      "stateMutability": "view",
      "type": "function"
    },
    {
      "inputs": [],
      "name": "pendingClaims",
      "outputs": [
        {
          "internalType": "address[]",
          "name": "",
          "type": "address[]"
        }
      ],
      "stateMutability": "view",
      "type": "function"
    },
    {
      "stateMutability": "payable",
      "type": "receive"
    }
  ],
  "bytecode": "0x6080604052348015600f57600080fd5b50336000806101000a81548173ffffffffffffffffffffffffffffffffffffffff021916908373ffffffffffffffffffffffffffffffffffffffff1602179055506123508061005f6000396000f3fe60806040526004361061007f5760003560e01c8063c17694061161004e578063c176940614610199578063d0e30db0146101c4578063d7b92d45146101ce578063dbb773d9146101e5576100d4565b806332648e09146100d95780633e6be3d21461011a5780638da5cb5b14610145578063b93d8e1214610170576100d4565b366100d4573373ffffffffffffffffffffffffffffffffffffffff167f9936746a4565f9766fa768f88f56a7487c78780ac179562773d1c75c5269537e346040516100ca91906114aa565b60405180910390a2005b600080fd5b3480156100e557600080fd5b5061010060048036038101906100fb9190611537565b61020e565b60405161011195949392919061161e565b60405180910390f35b34801561012657600080fd5b5061012f6103a8565b60405161013c9190611736565b60405180910390f35b34801561015157600080fd5b5061015a6104c4565b6040516101679190611758565b60405180910390f35b34801561017c57600080fd5b5061019760048036038101906101929190611912565b6104e8565b005b3480156101a557600080fd5b506101ae61085c565b6040516101bb9190611aa1565b60405180910390f35b6101cc610a8f565b005b3480156101da57600080fd5b506101e3610b6d565b005b3480156101f157600080fd5b5061020c60048036038101906102079190611537565b610f42565b005b60006060600080600080600160008873ffffffffffffffffffffffffffffffffffffffff1673ffffffffffffffffffffffffffffffffffffffff1681526020019081526020016000206040518060a00160405290816000820160009054906101000a900473ffffffffffffffffffffffffffffffffffffffff1673ffffffffffffffffffffffffffffffffffffffff1673ffffffffffffffffffffffffffffffffffffffff1681526020016001820180546102c890611af2565b80601f01602080910402602001604051908101604052809291908181526020018280546102f490611af2565b80156103415780601f1061031657610100808354040283529160200191610341565b820191906000526020600020905b81548152906001019060200180831161032457829003601f168201915b5050505050815260200160028201548152602001600382015481526020016004820160009054906101000a900460ff161515151581525050905080600001518160200151826040015183606001518460800151955095509550955095505091939590929450565b606060008054906101000a900473ffffffffffffffffffffffffffffffffffffffff1673ffffffffffffffffffffffffffffffffffffffff163373ffffffffffffffffffffffffffffffffffffffff1614610438576040517f08c379a000000000000000000000000000000000000000000000000000000000815260040161042f90611b95565b60405180910390fd5b60048054806020026020016040519081016040528092919081815260200182805480156104ba57602002820191906000526020600020905b8160009054906101000a900473ffffffffffffffffffffffffffffffffffffffff1673ffffffffffffffffffffffffffffffffffffffff1681526020019060010190808311610470575b5050505050905090565b60008054906101000a900473ffffffffffffffffffffffffffffffffffffffff1681565b60008054906101000a900473ffffffffffffffffffffffffffffffffffffffff1673ffffffffffffffffffffffffffffffffffffffff163373ffffffffffffffffffffffffffffffffffffffff1614610576576040517f08c379a000000000000000000000000000000000000000000000000000000000815260040161056d90611b95565b60405180910390fd5b600073ffffffffffffffffffffffffffffffffffffffff168473ffffffffffffffffffffffffffffffffffffffff16036105e5576040517f08c379a00000000000000000000000000000000000000000000000000000000081526004016105dc90611c01565b60405180910390fd5b600160008573ffffffffffffffffffffffffffffffffffffffff1673ffffffffffffffffffffffffffffffffffffffff16815260200190815260200160002060040160009054906101000a900460ff1615610675576040517f08c379a000000000000000000000000000000000000000000000000000000000815260040161066c90611c6d565b60405180910390fd5b6000670de0b6b3a76400008361068b9190611cbc565b90506040518060a001604052808673ffffffffffffffffffffffffffffffffffffffff16815260200185815260200182815260200183815260200160011515815250600160008773ffffffffffffffffffffffffffffffffffffffff1673ffffffffffffffffffffffffffffffffffffffff16815260200190815260200160002060008201518160000160006101000a81548173ffffffffffffffffffffffffffffffffffffffff021916908373ffffffffffffffffffffffffffffffffffffffff16021790555060208201518160010190816107689190611eaa565b50604082015181600201556060820151816003015560808201518160040160006101000a81548160ff0219169083151502179055509050506003859080600181540180825580915050600190039060005260206000200160009091909190916101000a81548173ffffffffffffffffffffffffffffffffffffffff021916908373ffffffffffffffffffffffffffffffffffffffff1602179055508473ffffffffffffffffffffffffffffffffffffffff167ffe51227bd6ae32dc3fbe0b77075d1cfc707fb6b1f7413b0f77e3c6772c1afb0b85838560405161084d93929190611f7c565b60405180910390a25050505050565b606060008054906101000a900473ffffffffffffffffffffffffffffffffffffffff1673ffffffffffffffffffffffffffffffffffffffff163373ffffffffffffffffffffffffffffffffffffffff16146108ec576040517f08c379a00000000000000000000000000000000000000000000000000000000081526004016108e390611b95565b60405180910390fd5b600060038054905067ffffffffffffffff81111561090d5761090c6117bb565b5b60405190808252806020026020018201604052801561094057816020015b606081526020019060019003908161092b5790505b50905060005b600380549050811015610a8757600160006003838154811061096b5761096a611fba565b5b9060005260206000200160009054906101000a900473ffffffffffffffffffffffffffffffffffffffff1673ffffffffffffffffffffffffffffffffffffffff1673ffffffffffffffffffffffffffffffffffffffff16815260200190815260200160002060010180546109de90611af2565b80601f0160208091040260200160405190810160405280929190818152602001828054610a0a90611af2565b8015610a575780601f10610a2c57610100808354040283529160200191610a57565b820191906000526020600020905b815481529060010190602001808311610a3a57829003601f168201915b5050505050828281518110610a6f57610a6e611fba565b5b60200260200101819052508080600101915050610946565b508091505090565b60008054906101000a900473ffffffffffffffffffffffffffffffffffffffff1673ffffffffffffffffffffffffffffffffffffffff163373ffffffffffffffffffffffffffffffffffffffff1614610b1d576040517f08c379a0000000000000000000000000000000000000000000000000000000008152600401610b1490611b95565b60405180910390fd5b3373ffffffffffffffffffffffffffffffffffffffff167f9936746a4565f9766fa768f88f56a7487c78780ac179562773d1c75c5269537e34604051610b6391906114aa565b60405180910390a2565b600160003373ffffffffffffffffffffffffffffffffffffffff1673ffffffffffffffffffffffffffffffffffffffff16815260200190815260200160002060040160009054906101000a900460ff16610bfc576040517f08c379a0000000000000000000000000000000000000000000000000000000008152600401610bf390612035565b60405180910390fd5b600260003373ffffffffffffffffffffffffffffffffffffffff1673ffffffffffffffffffffffffffffffffffffffff16815260200190815260200160002060010160009054906101000a900460ff1615610c8c576040517f08c379a0000000000000000000000000000000000000000000000000000000008152600401610c83906120a1565b60405180910390fd5b6000600160003373ffffffffffffffffffffffffffffffffffffffff1673ffffffffffffffffffffffffffffffffffffffff1681526020019081526020016000206040518060a00160405290816000820160009054906101000a900473ffffffffffffffffffffffffffffffffffffffff1673ffffffffffffffffffffffffffffffffffffffff1673ffffffffffffffffffffffffffffffffffffffff168152602001600182018054610d3e90611af2565b80601f0160208091040260200160405190810160405280929190818152602001828054610d6a90611af2565b8015610db75780601f10610d8c57610100808354040283529160200191610db7565b820191906000526020600020905b815481529060010190602001808311610d9a57829003601f168201915b5050505050815260200160028201548152602001600382015481526020016004820160009054906101000a900460ff1615151515815250509050600081606001518260400151610e079190611cbc565b9050604051806040016040528082815260200160011515815250600260003373ffffffffffffffffffffffffffffffffffffffff1673ffffffffffffffffffffffffffffffffffffffff1681526020019081526020016000206000820151816000015560208201518160010160006101000a81548160ff0219169083151502179055509050506004339080600181540180825580915050600190039060005260206000200160009091909190916101000a81548173ffffffffffffffffffffffffffffffffffffffff021916908373ffffffffffffffffffffffffffffffffffffffff1602179055503373ffffffffffffffffffffffffffffffffffffffff167fedb73a28656fc54b5b54d180d469da306262375b8fab1d30e7bfdfe6fa4d71a882604051610f3691906114aa565b60405180910390a25050565b60008054906101000a900473ffffffffffffffffffffffffffffffffffffffff1673ffffffffffffffffffffffffffffffffffffffff163373ffffffffffffffffffffffffffffffffffffffff1614610fd0576040517f08c379a0000000000000000000000000000000000000000000000000000000008152600401610fc790611b95565b60405180910390fd5b6000600260008373ffffffffffffffffffffffffffffffffffffffff1673ffffffffffffffffffffffffffffffffffffffff168152602001908152602001600020604051806040016040529081600082015481526020016001820160009054906101000a900460ff16151515158152505090508060200151611087576040517f08c379a000000000000000000000000000000000000000000000000000000000815260040161107e9061210d565b60405180910390fd5b80600001514710156110ce576040517f08c379a00000000000000000000000000000000000000000000000000000000081526004016110c590612179565b60405180910390fd5b6000600160008473ffffffffffffffffffffffffffffffffffffffff1673ffffffffffffffffffffffffffffffffffffffff16815260200190815260200160002060000160009054906101000a900473ffffffffffffffffffffffffffffffffffffffff169050600073ffffffffffffffffffffffffffffffffffffffff168173ffffffffffffffffffffffffffffffffffffffff16036111a4576040517f08c379a000000000000000000000000000000000000000000000000000000000815260040161119b906121e5565b60405180910390fd5b60008173ffffffffffffffffffffffffffffffffffffffff1683600001516040516111ce90612236565b60006040518083038185875af1925050503d806000811461120b576040519150601f19603f3d011682016040523d82523d6000602084013e611210565b606091505b5050905080611254576040517f08c379a000000000000000000000000000000000000000000000000000000000815260040161124b90612297565b60405180910390fd5b8173ffffffffffffffffffffffffffffffffffffffff167f308187387164507a01d4463583bc3e8760529edc45d573acc02ed018bd4ac276846000015160405161129e91906114aa565b60405180910390a2600260008573ffffffffffffffffffffffffffffffffffffffff1673ffffffffffffffffffffffffffffffffffffffff1681526020019081526020016000206000808201600090556001820160006101000a81549060ff0219169055505060005b60048054905081101561148a578473ffffffffffffffffffffffffffffffffffffffff166004828154811061133f5761133e611fba565b5b9060005260206000200160009054906101000a900473ffffffffffffffffffffffffffffffffffffffff1673ffffffffffffffffffffffffffffffffffffffff160361147d576004600160048054905061139991906122b7565b815481106113aa576113a9611fba565b5b9060005260206000200160009054906101000a900473ffffffffffffffffffffffffffffffffffffffff16600482815481106113e9576113e8611fba565b5b9060005260206000200160006101000a81548173ffffffffffffffffffffffffffffffffffffffff021916908373ffffffffffffffffffffffffffffffffffffffff1602179055506004805480611443576114426122eb565b5b6001900381819060005260206000200160006101000a81549073ffffffffffffffffffffffffffffffffffffffff0219169055905561148a565b8080600101915050611307565b5050505050565b6000819050919050565b6114a481611491565b82525050565b60006020820190506114bf600083018461149b565b92915050565b6000604051905090565b600080fd5b600080fd5b600073ffffffffffffffffffffffffffffffffffffffff82169050919050565b6000611504826114d9565b9050919050565b611514816114f9565b811461151f57600080fd5b50565b6000813590506115318161150b565b92915050565b60006020828403121561154d5761154c6114cf565b5b600061155b84828501611522565b91505092915050565b61156d816114f9565b82525050565b600081519050919050565b600082825260208201905092915050565b60005b838110156115ad578082015181840152602081019050611592565b60008484015250505050565b6000601f19601f8301169050919050565b60006115d582611573565b6115df818561157e565b93506115ef81856020860161158f565b6115f8816115b9565b840191505092915050565b60008115159050919050565b61161881611603565b82525050565b600060a0820190506116336000830188611564565b818103602083015261164581876115ca565b9050611654604083018661149b565b611661606083018561149b565b61166e608083018461160f565b9695505050505050565b600081519050919050565b600082825260208201905092915050565b6000819050602082019050919050565b6116ad816114f9565b82525050565b60006116bf83836116a4565b60208301905092915050565b6000602082019050919050565b60006116e382611678565b6116ed8185611683565b93506116f883611694565b8060005b8381101561172957815161171088826116b3565b975061171b836116cb565b9250506001810190506116fc565b5085935050505092915050565b6000602082019050818103600083015261175081846116d8565b905092915050565b600060208201905061176d6000830184611564565b92915050565b600061177e826114d9565b9050919050565b61178e81611773565b811461179957600080fd5b50565b6000813590506117ab81611785565b92915050565b600080fd5b600080fd5b7f4e487b7100000000000000000000000000000000000000000000000000000000600052604160045260246000fd5b6117f3826115b9565b810181811067ffffffffffffffff82111715611812576118116117bb565b5b80604052505050565b60006118256114c5565b905061183182826117ea565b919050565b600067ffffffffffffffff821115611851576118506117bb565b5b61185a826115b9565b9050602081019050919050565b82818337600083830152505050565b600061188961188484611836565b61181b565b9050828152602081018484840111156118a5576118a46117b6565b5b6118b0848285611867565b509392505050565b600082601f8301126118cd576118cc6117b1565b5b81356118dd848260208601611876565b91505092915050565b6118ef81611491565b81146118fa57600080fd5b50565b60008135905061190c816118e6565b92915050565b6000806000806080858703121561192c5761192b6114cf565b5b600061193a8782880161179c565b945050602085013567ffffffffffffffff81111561195b5761195a6114d4565b5b611967878288016118b8565b9350506040611978878288016118fd565b9250506060611989878288016118fd565b91505092959194509250565b600081519050919050565b600082825260208201905092915050565b6000819050602082019050919050565b600082825260208201905092915050565b60006119dd82611573565b6119e781856119c1565b93506119f781856020860161158f565b611a00816115b9565b840191505092915050565b6000611a1783836119d2565b905092915050565b6000602082019050919050565b6000611a3782611995565b611a4181856119a0565b935083602082028501611a53856119b1565b8060005b85811015611a8f5784840389528151611a708582611a0b565b9450611a7b83611a1f565b925060208a01995050600181019050611a57565b50829750879550505050505092915050565b60006020820190508181036000830152611abb8184611a2c565b905092915050565b7f4e487b7100000000000000000000000000000000000000000000000000000000600052602260045260246000fd5b60006002820490506001821680611b0a57607f821691505b602082108103611b1d57611b1c611ac3565b5b50919050565b7f4f6e6c79206f776e65722063616e20706572666f726d2074686973206163746960008201527f6f6e000000000000000000000000000000000000000000000000000000000000602082015250565b6000611b7f60228361157e565b9150611b8a82611b23565b604082019050919050565b60006020820190508181036000830152611bae81611b72565b9050919050565b7f496e76616c696420656d706c6f79656520616464726573730000000000000000600082015250565b6000611beb60188361157e565b9150611bf682611bb5565b602082019050919050565b60006020820190508181036000830152611c1a81611bde565b9050919050565b7f456d706c6f79656520616c726561647920657869737473000000000000000000600082015250565b6000611c5760178361157e565b9150611c6282611c21565b602082019050919050565b60006020820190508181036000830152611c8681611c4a565b9050919050565b7f4e487b7100000000000000000000000000000000000000000000000000000000600052601160045260246000fd5b6000611cc782611491565b9150611cd283611491565b9250828202611ce081611491565b91508282048414831517611cf757611cf6611c8d565b5b5092915050565b60008190508160005260206000209050919050565b60006020601f8301049050919050565b600082821b905092915050565b600060088302611d607fffffffffffffffffffffffffffffffffffffffffffffffffffffffffffffffff82611d23565b611d6a8683611d23565b95508019841693508086168417925050509392505050565b6000819050919050565b6000611da7611da2611d9d84611491565b611d82565b611491565b9050919050565b6000819050919050565b611dc183611d8c565b611dd5611dcd82611dae565b848454611d30565b825550505050565b600090565b611dea611ddd565b611df5818484611db8565b505050565b5b81811015611e1957611e0e600082611de2565b600181019050611dfb565b5050565b601f821115611e5e57611e2f81611cfe565b611e3884611d13565b81016020851015611e47578190505b611e5b611e5385611d13565b830182611dfa565b50505b505050565b600082821c905092915050565b6000611e8160001984600802611e63565b1980831691505092915050565b6000611e9a8383611e70565b9150826002028217905092915050565b611eb382611573565b67ffffffffffffffff811115611ecc57611ecb6117bb565b5b611ed68254611af2565b611ee1828285611e1d565b600060209050601f831160018114611f145760008415611f02578287015190505b611f0c8582611e8e565b865550611f74565b601f198416611f2286611cfe565b60005b82811015611f4a57848901518255600182019150602085019450602081019050611f25565b86831015611f675784890151611f63601f891682611e70565b8355505b6001600288020188555050505b505050505050565b60006060820190508181036000830152611f9681866115ca565b9050611fa5602083018561149b565b611fb2604083018461149b565b949350505050565b7f4e487b7100000000000000000000000000000000000000000000000000000000600052603260045260246000fd5b7f4f6e6c79207265676973746572656420656d706c6f7965657300000000000000600082015250565b600061201f60198361157e565b915061202a82611fe9565b602082019050919050565b6000602082019050818103600083015261204e81612012565b9050919050565b7f416c7265616479206861766520612070656e64696e6720636c61696d00000000600082015250565b600061208b601c8361157e565b915061209682612055565b602082019050919050565b600060208201905081810360008301526120ba8161207e565b9050919050565b7f4e6f2070656e64696e6720636c61696d00000000000000000000000000000000600082015250565b60006120f760108361157e565b9150612102826120c1565b602082019050919050565b60006020820190508181036000830152612126816120ea565b9050919050565b7f496e73756666696369656e7420636f6e74726163742062616c616e6365000000600082015250565b6000612163601d8361157e565b915061216e8261212d565b602082019050919050565b6000602082019050818103600083015261219281612156565b9050919050565b7f496e76616c696420656d706c6f7965652077616c6c6574000000000000000000600082015250565b60006121cf60178361157e565b91506121da82612199565b602082019050919050565b600060208201905081810360008301526121fe816121c2565b9050919050565b600081905092915050565b50565b6000612220600083612205565b915061222b82612210565b600082019050919050565b600061224182612213565b9150819050919050565b7f4661696c656420746f2073656e64204574686572000000000000000000000000600082015250565b600061228160148361157e565b915061228c8261224b565b602082019050919050565b600060208201905081810360008301526122b081612274565b9050919050565b60006122c282611491565b91506122cd83611491565b92508282039050818111156122e5576122e4611c8d565b5b92915050565b7f4e487b7100000000000000000000000000000000000000000000000000000000600052603160045260246000fdfea26469706673582212205893be169bc956792eb60a4adecc1fe8fd258e9af7fb0cede3cd019db310fa0a64736f6c634300081c0033",
  "linkReferences": {},
  "deployedLinkReferences": {}
}